:100000000C940C010C9434010C9434010C943401C4
:100010000C9434010C9434010C942F060C9434018C
:100020000C9434010C9434010C9434010C940B06A0
:100030000C9404060C9412060C9434010C943401B4
:100040000C94BA050C9434010C9488050C94620548
:100050000C9434010C946A060C9434010C94340111
:100060000C9434010C943401D60CE90C080D250DC8
:10007000E90C080D320DE90C080D400DD60CE90C09
:10008000080D250DE90C080D520DE90C080DB40DF5
:10009000D60CE90C080D250DE90C080D520DE90CE4
:1000A000080DB40DD60CE90C080D250DE90C080D52
:1000B000520DE90C080DB40DE90C080D000000000C
:1000C000240027002A0000000000250028002B0043
:1000D0000000000023002600290004040404040496
:1000E00004040202020202020303030303030102E7
:1000F00004081020408001020408102001020408B6
:1001000010200000000800020100000304070000A6
:1001100000000000000000316253C4F5A697B988C2
:10012000DBEA7D4C1F2E4372211087B6E5D4FACB53
:1001300098A93E0F5C6D86B7E4D5427320113F0E3F
:100140005D6CFBCA99A8C5F4A796013063527C4D3B
:100150001E2FB889DAEB3D0C5F6EF9C89BAA84B5F7
:10016000E6D7407122137E4F1C2DBA8BD8E9C7F613
:10017000A59403326150BB8AD9E87F4E1D2C02330F
:100180006051C6F7A495F8C99AAB3C0D5E6F4170FB
:10019000231285B4E7D67A4B1829BE8FDCEDC3F263
:1001A000A1900736655439085B6AFDCC9FAE80B1DB
:1001B000E2D344752617FCCD9EAF38095A6B4574BF
:1001C000271681B0E3D2BF8EDDEC7B4A19280637B3
:1001D0006455C2F3A0914776251483B2E1D0FECFD7
:1001E0009CAD3A0B586904356657C0F1A293BD8C9B
:1001F000DFEE79481B2AC1F0A3920534675678498F
:100200001A2BBC8DDEEF82B3E0D1467724153B0A72
:100210005968FFCE9DAC1B0711241FBECFEFD8E05D
:10022000DEBFCDBF11E0A0E0B1E0EEE4F2E202C03B
:1002300005900D92AC32B107D9F722E0ACE2B1E003
:1002400001C01D92A635B207E1F711E0CCE0D1E084
:1002500004C02197FE010E94F10DCB30D107C9F7F0
:100260000E948C070C9425110C940000CF92DF9211
:10027000EF92FF920F931F93CF93DF936C017A015C
:100280008B01C0E0D0E0CE15DF0589F0D8016D917B
:100290008D01D601ED91FC910190F081E02DC60118
:1002A0000995892B11F47E0102C02196ECCFC7017C
:1002B000DF91CF911F910F91FF90EF90DF90CF9042
:1002C0000895FC01918D828D981761F0828DDF0178
:1002D000A80FB11D5D968C91928D9F5F9F73928F39
:1002E00090E008958FEF9FEF0895FC01918D828D2E
:1002F000981731F0828DE80FF11D858D90E00895FB
:100300008FEF9FEF0895FC01918D228D892F90E052
:10031000805C9F4F821B91098F73992708958DE808
:1003200091E00E94830121E0892B09F420E0822FD3
:100330000895FC01848DDF01A80FB11DA35ABF4FA2
:100340002C91848D90E001968F739927848FA689D4
:10035000B7892C93A089B1898C9180648C93938DFB
:10036000848D981306C00288F389E02D80818F7DEB
:1003700080830895EF92FF920F931F93CF93DF93A3
:10038000EC0181E0888F9B8D8C8D981305C0E889E6
:10039000F989808185FD24C0F62E0B8D10E00F5F5A
:1003A0001F4F0F731127E02E8C8DE8120CC00FB673
:1003B00007FCFACFE889F989808185FFF5CFCE0166
:1003C0000E949901F1CF8B8DFE01E80FF11DE35AD8
:1003D000FF4FF0820B8FEA89FB898081806207C022
:1003E000EE89FF896083E889F98980818064808350
:1003F00081E090E0DF91CF911F910F91FF90EF90FE
:100400000895CF93DF93EC01888D8823C9F0EA89A2
:10041000FB89808185FD05C0A889B9898C9186FDFD
:100420000FC00FB607FCF5CF808185FFF2CFA889FA
:10043000B9898C9185FFEDCFCE010E949901E7CF5C
:10044000DF91CF91089580E090E0892B29F00E9400
:100450008F0181110C9400000895833081F028F4FD
:10046000813099F08230A1F008958730A9F088306A
:10047000B9F08430D1F4809180008F7D03C08091E9
:1004800080008F7780938000089584B58F7702C0B5
:1004900084B58F7D84BD08958091B0008F7703C0AF
:1004A0008091B0008F7D8093B0000895CF93DF934B
:1004B000282F30E0F901EE5FFE4F8491F901E251FF
:1004C000FF4FD491F901E652FF4FC491CC2391F034
:1004D00081110E942D02EC2FF0E0EE0FFF1FE05380
:1004E000FF4FA591B491EC91ED2381E090E021F4D0
:1004F00080E002C080E090E0DF91CF9108951F93EB
:10050000CF93DF93282F30E0F901EE5FFE4F849107
:10051000F901E251FF4FD491F901E652FF4FC49126
:10052000CC23C9F0162F81110E942D02EC2FF0E090
:10053000EE0FFF1FEA53FF4FA591B4918FB7F894C8
:10054000111105C09C91ED2FE095E92302C0EC91BB
:10055000ED2BEC938FBFDF91CF911F910895CF9337
:10056000DF9390E0FC01E251FF4F2491FC01E65241
:10057000FF4F8491882361F190E0880F991FFC015F
:10058000E454FF4FC591D491FC01EA53FF4FA5916C
:10059000B491611109C09FB7F89488812095822396
:1005A0008883EC912E230BC0623061F49FB7F894DE
:1005B0003881822F809583238883EC912E2B2C9376
:1005C0009FBF06C08FB7F894E8812E2B28838FBF7A
:1005D000DF91CF9108953FB7F894809134019091C5
:1005E0003501A0913601B091370126B5A89B05C011
:1005F0002F3F19F00196A11DB11D3FBFBA2FA92FA2
:10060000982F8827820F911DA11DB11DBC01CD011E
:1006100042E0660F771F881F991F4A95D1F708950A
:100620008F929F92AF92BF92CF92DF92EF92FF9202
:100630006B017C010E94EB024B015C01C114D104EF
:10064000E104F104F1F00E94EB02DC01CB01881916
:100650009909AA09BB09883E9340A105B10570F329
:1006600021E0C21AD108E108F10888EE880E83E083
:10067000981EA11CB11CC114D104E104F10419F7A6
:10068000DDCFFF90EF90DF90CF90BF90AF909F9025
:100690008F900895F8949CE0899FF001112486E0E2
:1006A000689FE00DF11D1124E95BFE4F808191816F
:1006B000A281B3812481358140E050E01082118213
:1006C0001282138215821482789421153105410516
:1006D000510569F0BC01CD01E4E0660F771F881F6A
:1006E000991FEA95D1F70E94CF0DC901089580E0C6
:1006F00090E00895CF92DF92EF92FF920F931F93B5
:10070000CF93C82F0E944A036C01E12CF12CA70162
:1007100096016DED76E881E090E00E94BF0D00EE5D
:1007200012E221E030E0A90198012C193D094E099F
:100730005F090E94CF0D285D354F4F4F5F4F60E836
:1007400073EC89EC91E00E94CF0DC901C23019F021
:1007500088539F4F02C088509740CF911F910F91AF
:10076000FF90EF90DF90CF900895682F81E00E9476
:100770004A039C0180914401882359F0A7E3B7E321
:100780000E94F70D20E030EE40E050E00E94CF0DD7
:100790000EC0A7E1B7E00E94F70D20E038E340E08B
:1007A00050E00E94CF0D285D3F4F4F4F5F4FC90172
:1007B0000895682F80E00E944A039C0140E050E0C9
:1007C00060910101623069F49C01A9E0B0E00E94EF
:1007D000F70D20E232E040E050E00E94CF0DC90169
:1007E000089560910A01662329F160910001662352
:1007F00071F09C01A3E1B1E00E94F70D9B01AC01F7
:100800006BE056954795379527956A95D1F7213135
:1008100031054105510530F1AFE5B5E00E94060E06
:10082000DC01CB013BE0B695A795979587953A9566
:10083000D1F70895213131054105510598F09C010A
:10084000A3E1B1E00E94F70DDC01CB012AE0B695EF
:10085000A795979587952A95D1F78E5A9F4FAF4FB9
:10086000BF4F089580E090E00895809101011092BB
:10087000800010928100882391F089E00E94560246
:10088000892BD9F710926F0080910101823069F4B1
:100890005A9A5B9A60E08AE00E947F0206C010923A
:1008A0006F0029985A9A2A985B9A1092700080E2F9
:1008B0008093890108959093080180930701209106
:1008C0000101213089F49C01220F331F820F931FF5
:1008D00063E0969587956A95E1F789589E4F9093C6
:1008E0008900809388000895223021F5893E23E015
:1008F000920724F09C01285E334004C028EE33E0C8
:10090000281B390B220F331F220F331F309389000E
:1009100020938800813124E0920718F05A9A5B985E
:100920000895803C934018F45B9A5A9808955A9A17
:100930005B9A08958D3424E0920710F18D3627E0FC
:10094000920738F080910A01811110C020E83EE33F
:100950000FC040ED57E0481B590B569547955695EB
:1009600047954C5E5F4F2AEF30E004C020E03AEF3D
:1009700048E750E083E080936F0080E89EE32CC05E
:10098000843823E09207D0F48436910538F48091BE
:100990000A0181110BC020E83EE30AC096958795B5
:1009A0009695879544962AEF30E004C020E03AEF10
:1009B00088E790E045E040936F000CC010926F0014
:1009C00029982A98000000005A985B9828EE33E096
:1009D00080E89EE340E85EE360916F006623D9F013
:1009E000509389004093880090938B0080938A00F5
:1009F00080918600909187008217930761F0F894A8
:100A00003093870020938600285231093093850067
:100A1000209384007894089588EE93E00E945B040C
:100A200088EE93E0909306018093050108950E945B
:100A30000C0580918B0190918C01877F90938C01A4
:100A400080938B018FE18093890160E08BE00E94AD
:100A50007F0260E08DE00C947F020F931F93CF9391
:100A6000DF93CDB7DEB7C058D1090FB6F894DEBF1B
:100A70000FBECDBF9E0127573F4F4AE251E060E8CD
:100A800070E08E010F5F1F4FC8010E94160EF80123
:100A900001900020E9F73197AF01401B510BB801DD
:100AA0008DE891E00E943601C058DF4F0FB6F894F0
:100AB000DEBF0FBECDBFDF91CF911F910F91089583
:100AC0000E94110E1F920F920FB60F9211242F93B6
:100AD0003F934F935F936F937F938F939F93AF93C6
:100AE000BF93EF93FF938DE891E00E949901FF91EE
:100AF000EF91BF91AF919F918F917F916F915F9196
:100B00004F913F912F910F900FBE0F901F9018950E
:100B10001F920F920FB60F9211242F938F939F93D2
:100B2000EF93FF93E0919D01F0919E018081E09110
:100B3000A301F091A40182FD12C090818091A601D1
:100B40008F5F8F732091A701821751F0E091A6016A
:100B5000F0E0E357FE4F958F8093A60101C080819E
:100B6000FF91EF919F918F912F910F900FBE0F905A
:100B70001F9018951F920F920FB60F9211242F936A
:100B80003F938F939F93AF93BF9380913001909148
:100B90003101A0913201B091330130912F0123E056
:100BA000230F2D3720F40196A11DB11D05C026E8A5
:100BB000230F0296A11DB11D20932F0180933001B8
:100BC00090933101A0933201B093330180913401AD
:100BD00090913501A0913601B09137010196A11D88
:100BE000B11D8093340190933501A0933601B093E9
:100BF0003701BF91AF919F918F913F912F910F90AE
:100C00000FBE0F901F9018955B9A29980000000066
:100C10002A9A5A9818955A9A2A9800000000299AF8
:100C20005B9818951F920F920FB60F9211248F9315
:100C300080916F0081FF05C02998000000005A983C
:100C400008C080916F0082FF04C02A980000000055
:100C50005B988F910F900FBE0F901F9018951F9269
:100C60000F920FB60F9211242F933F934F935F93E0
:100C70006F937F938F939F93AF93BF93EF93FF9364
:100C8000A8950FB6F894A89580916000886180932C
:100C90006000109260000FBE0E94170562E370E0D2
:100CA00080E090E00E9410030E943504E0E0F0E054
:100CB0000994FF91EF91BF91AF919F918F917F9197
:100CC0006F915F914F913F912F910F900FBE0F90B9
:100CD0001F9018951F920F920FB60F9211242F9309
:100CE0003F934F935F936F937F938F939F93AF93B4
:100CF000BF93EF93FF9380910101882331F080919E
:100D00007A00806480937A0001C07894A091780082
:100D1000B091790020912E012F5F20932E01243075
:100D200008F46FC080912C0190912D013CE0389F18
:100D3000F001399FF00D1124E95BFE4F448155818C
:100D4000403A5F4090F440815181628173814A0F43
:100D50005B1F611D711D40835183628373834481D6
:100D600055814F5F5F4F558344833CE0389FF001CE
:100D7000399FF00D1124E95BFE4F42855385403ABF
:100D80005F4090F446815781608571854A0F5B1FF3
:100D9000611D711D46835783608771874285538526
:100DA0004F5F5F4F53874287009719F4223348F112
:100DB0000FC08130910519F4283018F109C0843032
:100DC000910531F430914301332311F02031C8F003
:100DD00010922E0101968530910528F490932D01F3
:100DE00080932C0104C010922D0110922C01E091EF
:100DF0002C01F0912D01EB5EFE4F8081806C809381
:100E00007C0080910101811105C080917A0080648D
:100E100080937A00FF91EF91BF91AF919F918F9155
:100E20007F916F915F914F913F912F910F900FBEE6
:100E30000F901F901895EDE8F1E01382128288EE72
:100E400093E0A0E0B0E084839583A683B7838EE12E
:100E500091E09183808385EC90E09587848784EC92
:100E600090E09787868780EC90E0918B808B81EC77
:100E700090E0938B828B82EC90E0958B848B86EC58
:100E800090E0978B868B118E128E138E148EEAE271
:100E9000F2E086E390E0918380831586148681E0FA
:100EA00090E09787868782E090E0918B808B87E047
:100EB00090E0938B828B88E090E0958B848B89E027
:100EC00090E091A780A78AE090E093A782A78CE0AA
:100ED00090E0978B868B8DE090E0918F808F8EE0F5
:100EE00090E0938F828F8FE090E0958F848F8BE0DE
:100EF00090E0978F868F8AE190E091A380A38BE1A9
:100F000090E093A382A38CE190E095A384A38FEF5C
:100F100090E097A386A30895CF93DF93CDB7DEB774
:100F200029970FB6F894DEBF0FBECDBF789484B575
:100F3000826084BD84B5816084BD85B5826085BDD5
:100F400085B5816085BD80916E00816080936E0063
:100F50001092810080918100826080938100809155
:100F60008100816080938100809180008160809306
:100F700080008091B10084608093B1008091B000C6
:100F800081608093B00080917A00846080937A00C1
:100F900080917A00826080937A0080917A008160EB
:100FA00080937A0080917A00806880937A00109212
:100FB000C10080E88093610082E080936100F89432
:100FC00014BE88E18093600084E48093600099E01F
:100FD000E0E0F0E0909357003491E3E0F0E090938C
:100FE00057002491E2E0F0E0909357008491E1E013
:100FF000F0E09093570094913F3F31F42A3D21F463
:10100000E4E0E80FE23048F080918B0190918C0190
:10101000986090938C0180938B01789460E082E1DA
:101020000E94AF0260E082E10E947F0262E084E001
:101030000E94AF0262E085E00E94AF0262E086E0BB
:101040000E94AF0262E08BE00E94AF0262E08CE09F
:101050000E94AF0210924001E0919D01F0919E012B
:1010600082E08083E0919901F0919A011082E091F1
:101070009B01F0919C018CE080831092A501E0918E
:10108000A101F091A20186E08083E0919F01F0919F
:10109000A001808180618083E0919F01F091A00197
:1010A000808188608083E0919F01F091A001808120
:1010B00080688083E0919F01F091A00180818F7D05
:1010C000808383B7817F83BF60E08EE00E947F02D0
:1010D00061E08EE00E94AF028CE00E945602809395
:1010E0001201811104C060E08CE00E94AF0260E058
:1010F0008EE00E94AF0260E08BE00E947F0261E020
:101100008BE00E94AF0260E08DE00E947F0261E010
:101110008DE00E94AF0260E087E00E94AF0261E0D4
:1011200087E00E947F0260E088E00E94AF0261E0F9
:1011300088E00E947F0260E086E00E94AF0261E0EA
:1011400086E00E947F0260E084E00E94AF0261E0DE
:1011500084E00E947F0260E085E00E94AF0261E0CF
:1011600085E00E947F028FE891E00197F1F700C0CF
:10117000000086E00E94560280930101882341F01E
:1011800060E089E00E947F0261E089E00E94AF0296
:1011900084E00E9456028093000185E00E9456027E
:1011A00080930A018FE380937E0080910101823059
:1011B00011F481E401C081EC80937C0088E8809385
:1011C0007A0080917A00866080937A0080917A001C
:1011D000806480937A0061E080E10E94AF0260E069
:1011E0008FE00E947F0261E080E10E947F0262E066
:1011F0008FE00E94AF0285E891E023E0280F2F8363
:1012000070EAE72E7FE0F72ECC24CA94EFE1DE2EC1
:10121000F0E1AF2EF7E2BF2E812CACE39A2E8AE3E9
:1012200091E023E0280F2887A8958091B2008F34A1
:1012300008F44FC080918B0183FF41C080918A01E7
:101240008F5F80938A018823D1F14091040150E09F
:101250006091030170E0E0910701F0910801209195
:101260000501309106012E1B3F0B1216130684F464
:10127000E83E83E0F80730F4C90162177307CCF445
:10128000CB0117C0C901421753079CF4CA0111C012
:10129000E93E93E0F90728F088279927861B970BEA
:1012A00004C088279927841B950B821793070CF499
:1012B000C9018E0F9F1F0E945B0410928A018091CA
:1012C00089018F5F809389018091B2008E54809351
:1012D000B200809189018E3111F40E94170580912E
:1012E0008901803258F00E94350408C0E92FF0E0EF
:1012F000EB57FE4F80839F5F909388018DE891E0CC
:101300000E948301892B09F4C6C18DE891E00E94F7
:10131000610190918801933048F3A5E8B1E0EFEFC7
:101320002F812A1739F09D91E927F0E0EA5EFE4F00
:10133000E491F6CF40918B0150918C018E1391C1B5
:1013400080918401823008F47DC1CA01816090934C
:101350008C0180938B0170918601272F30E0E09102
:1013600087010E2F10E0102F0027C801822B932B2E
:1013700060918501613709F419C188F4633509F476
:1013800040C130F4693111F16E3109F4D6C05DC14C
:101390006A3509F4F1C0683609F4FEC056C1663BEF
:1013A00009F4F5C038F4613909F420C1643A09F44C
:1013B000D8C04BC1673C69F0673E09F046C14B7F1E
:1013C000416050938C0140938B013FC1F40109941B
:1013D0003CC110928901209140012C3018F42C5FFF
:1013E00020934001813DF7E09F0708F02EC19A014C
:1013F00026703327232B09F028C19A0120723270FE
:10140000232B39F0893E23E0920718F00E940C0547
:101410001CC19A0120743170232B21F0883EE3E037
:101420009E07A0F3909306018093050143FD0DC133
:1014300080910101813089F4D0928500C0928400AE
:1014400082E8809380008AE180938100B0928700D7
:10145000A092860010926F0053C0823069F51092FE
:1014600085001092840082E88093800089E1809357
:101470008100F0928700E092860010926F0060E099
:1014800082E00E947F0260E083E00E947F0260E0D1
:101490008AE00E947F0261E082E00E94AF0261E088
:1014A00083E00E94AF0260E08AE00E94AF0261E048
:1014B0008AE00E947F0224C010926F001092850083
:1014C0001092840082E08093800089E18093810003
:1014D000F0928700E092860029985A9A2A985B9A9F
:1014E00061E082E00E94AF0261E083E00E94AF020F
:1014F00061E089E00E94AF0261E08AE00E94AF02F1
:1015000088EE93E00E945B0461E08BE00E947F0222
:1015100061E08DE00E947F02109289011092B2007A
:1015200087E08093B10080918B0190918C0188605D
:1015300090938C0180938B0188C020910A01211126
:1015400003C050E747E102C050ED47E0252F342F9C
:101550008217930708F49C01309314012093130120
:1015600074C08131F7E29F0710F080E197E2909319
:101570000F0180930E0169C0813127E2920710F0BC
:1015800080E197E290930D0180930C015EC0E0939F
:101590000B017093420159C0809140018C3018F4C6
:1015A0008C5F809340010E9417054FC07093040127
:1015B000E09303017B3F48F08AEF80930401EB3F07
:1015C00068F08AEF8093030102C0EB3FD0F780916F
:1015D0000401811103C081E0809304018091030123
:1015E000811133C081E0809303012FC090913E01AF
:1015F00080913D01981329C070933E01E0933D0115
:1016000024C070FF1AC060900201712CC3010196C2
:1016100028173907D1F480913801082BB801C3018C
:101620000E94C610B801C30193950E94C610B8016C
:10163000C3019E5F0E94C61008C0E09338017093FA
:10164000020103C08F5F8093840110928801809112
:101650008B0190918C018F7E90938C0180938B01F4
:101660001AC08A010E7F89870E940C05109284019E
:10167000109283019091860190938501909187014A
:1016800090938601898580938701A80140615093DA
:101690008C0140938B0187E00E945602892B79F4DC
:1016A0008091070190910801893E934010F00E94BB
:1016B0000C0580918B0190918C01806205C0809116
:1016C0008B0190918C018F7D90938C0180938B0185
:1016D00088E00E945602892B79F48091070190914D
:1016E0000801883E934010F40E940C0580918B0104
:1016F00090918C01806405C080918B0190918C0148
:101700008F7B90938C0180938B01809151019091FC
:1017100052018F3A9240D8F081E00E94D903209183
:101720001301309114018217930740F00E940C05B9
:101730008091450190914601846005C080914501EA
:10174000909146018B7F9093460180934501809153
:101750005D0190915E018F3A924008F449C081E0AA
:101760000E94B5038830F7E09F0730F120914401D3
:10177000211126C020911201211122C081E0809305
:10178000440161E08CE00E94AF0260E08CE00E94C6
:101790007F0280E19EE0909311018093100162E04E
:1017A00070E080E090E00E94100380E00E94B503AA
:1017B00081E00E94B5031CC0893522E0920738F011
:1017C00020911001309111018217930740F00E947F
:1017D0000C058091450190914601806805C080917B
:1017E0004501909146018F77909346018093450182
:1017F000609045017090460180918B0190918C0121
:10180000682A792A70928C0160928B01809169011B
:1018100090916A01893C910578F1809175019091D0
:101820007601893C910540F161E082E00E947A03F3
:101830008C0161E083E00E947A0320910E013091D7
:101840000F010217130740F420910C0130910D0194
:101850002817390708F08BC10E940C05689461F8BD
:1018600070928C0160928B01093F1A4228F00E940D
:101870000C05E0E0F0E009948091810190918201F3
:10188000813A910508F46CC08AE291E09F938F93AE
:101890000E942D0561E084E00E944A038C01000F44
:1018A000111F000F111F0F900F908091430188238B
:1018B00009F445C0612E77248091420190E06816BA
:1018C000790678F48091070190910801883E934051
:1018D00010F40E940C0580918B0190918C01916015
:1018E00005C080918B0190918C019E7F90938C011B
:1018F00080938B0180910B0190E08615970578F419
:101900008091070190910801893E934010F00E9458
:101910000C0580918B0190918C01926005C08091A3
:101920008B0190918C019D7F90938C0180938B0112
:101930001250013C1B4FA0F01092430111C0015006
:1019400014400F3B174F18F481E0809343018091BE
:101950008B0190918C019C7F90938C0180938B01E3
:101960004090410192E0941520F0E1E04E1640F0E5
:10197000DEC0F3E04F12F8C0AAE3B1E06FEFE4C0BD
:1019800020914001243008F4EFC0E0913F0131E0A4
:101990003E0F30933F018E2F90E08A32910508F080
:1019A000E3C0FC01EC5CFF4F0C94F10D80910A0147
:1019B000811109C080918B0190918C01946090936A
:1019C0008C0180938B0100918B0110918C018FE829
:1019D000A8C080914B0190914C01C29708F4C4C0FB
:1019E00080E029870E94D9038C0129852450209307
:1019F000400161E070E080E090E00E94100380917F
:101A000083018F3F09F485C08F5F8093830181C07C
:101A100080917B0190917C010A9708F4A5C0809188
:101A20004301811107C0343008F09EC087EA0FEFF0
:101A30001FEF77C060E084E00E944A038C01000F32
:101A4000111F000F111F87EA6CC080915701909100
:101A50005801029708F488C080E00E94B5038C0109
:101A600083EB5FC08091630190916401892B09F43D
:101A70007BC060E082E00E947A038C0189EF51C054
:101A800080916F0190917001892B09F46DC060E025
:101A900083E00E947A038C01813B944008F464C087
:101AA00088E43FC050903E0180913D01581609F4F2
:101AB0005BC0052D10E050FE0BC08091090190E045
:101AC00001960817190709F055C08091390123C004
:101AD000CE0101963C01212C312CC101800F911FB8
:101AE0000E94C010F301819391933F01339421141C
:101AF00023E0320691F78D819E814B815C814817EE
:101B0000590711F089819A81909339015092090106
:101B100002C08CE106C0182B21E0250D20933E0168
:101B20008AE980933A0100933B0110933C01E42D34
:101B3000F0E0E65CFE4F60818DE891E00E94BA0122
:101B400043944092410110C028852A1739F0ED9145
:101B5000E627F0E0EA5EFE4F6491F6CF8DE891E073
:101B60000E94BA01109241010E9423025DCBE894C9
:101B700061F876CE21E0250D20933E01F5CFDB0103
:101B80008F939F930E94060EBF91AF91A29F800DED
:101B9000911DA39F900DB29F900D11240895A1E275
:101BA0001A2EAA1BBB1BFD010DC0AA1FBB1FEE1FD7
:101BB000FF1FA217B307E407F50720F0A21BB30B22
:101BC000E40BF50B661F771F881F991F1A9469F79E
:101BD00060957095809590959B01AC01BD01CF01FA
:101BE0000895EE0FFF1F0590F491E02D0994A29F38
:101BF000B001B39FC001A39F700D811D1124911DE1
:101C0000B29F700D811D1124911D08950E94F70D42
:101C1000A59F900DB49F900DA49F800D911D112440
:101C2000089581E090E0F8940C942511AEE0B0E0C6
:101C3000ECE1FEE00C94FC108C01CA0146E04C8300
:101C40001A83098377FF02C060E070E8FB013197D7
:101C5000FE83ED83A901BC01CE0101960E94420ED4
:101C60004D815E8157FD0AC02F8138854217530789
:101C70000CF49A01F801E20FF31F10822E96E4E0B3
:101C80000C941811ACE0B0E0E8E4FEE00C94EE1027
:101C90007C016B018A01FC0117821682838181FF1E
:101CA000BDC1CE0101964C01F7019381F60193FD70
:101CB000859193FF81916F01882309F4ABC185322F
:101CC00039F493FD859193FF81916F01853229F459
:101CD000B70190E00E942A10E7CF512C312C20E070
:101CE0002032A0F48B3269F030F4803259F0833224
:101CF00069F420612CC08D3239F0803339F42160D1
:101D000026C02260246023C0286021C027FD27C090
:101D100030ED380F3A3078F426FF06C0FAE05F9EC7
:101D2000300D1124532E13C08AE0389E300D11243B
:101D3000332E20620CC08E3221F426FD6BC120644C
:101D400006C08C3611F4206802C0883641F4F601D2
:101D500093FD859193FF81916F018111C1CF982FE0
:101D60009F7D9554933028F40C5F1F4FFFE3F98358
:101D70000DC0833631F0833771F0833509F05BC0D5
:101D800022C0F801808189830E5F1F4F4424439451
:101D9000512C540115C03801F2E06F0E711CF8018E
:101DA000A080B18026FF03C0652D70E002C06FEFF8
:101DB0007FEFC5012C870E941F102C0183012C8509
:101DC0002F77222E17C03801F2E06F0E711CF80138
:101DD000A080B18026FF03C0652D70E002C06FEFC8
:101DE0007FEFC5012C870E9414102C012C852068E0
:101DF000222E830123FC1BC0832D90E04816590638
:101E0000B0F4B70180E290E00E942A103A94F4CF37
:101E1000F50127FC859127FE81915F01B70190E0D4
:101E20000E942A1031103A94F1E04F1A51084114DF
:101E3000510471F7E5C0843611F0893639F5F8019F
:101E400027FF07C060817181828193810C5F1F4FE2
:101E500008C060817181072E000C880B990B0E5F02
:101E60001F4F2F76722E97FF09C090958095709521
:101E700061957F4F8F4F9F4F2068722E2AE030E090
:101E8000A4010E946210A82EA81844C0853729F426
:101E90002F7EB22E2AE030E025C0F22FF97FBF2E30
:101EA0008F36C1F018F4883579F0B4C0803719F056
:101EB000883721F0AFC02F2F2061B22EB4FE0DC0A5
:101EC0008B2D8460B82E09C024FF0AC09F2F966016
:101ED000B92E06C028E030E005C020E130E002C0A5
:101EE00020E132E0F801B7FE07C060817181828194
:101EF00093810C5F1F4F06C06081718180E090E08C
:101F00000E5F1F4FA4010E946210A82EA818FB2D7F
:101F1000FF777F2E76FE0BC0372D3E7FA51450F441
:101F200074FE0AC072FC08C0372D3E7E05C0BA2C74
:101F3000372D03C0BA2C01C0B52C34FF0DC0FE01F3
:101F4000EA0DF11D8081803311F4397E09C032FF22
:101F500006C0B394B39404C0832F867809F0B39479
:101F600033FD13C030FF06C05A2CB31418F4530CC1
:101F70005B18B32CB31468F4B70180E290E03C879F
:101F80000E942A10B3943C85F5CFB31410F43B188B
:101F900001C0312C34FF12C0B70180E390E03C87D0
:101FA0000E942A103C8532FF17C031FD03C088E72C
:101FB00090E002C088E590E0B7010CC0832F8678DE
:101FC00059F031FF02C08BE201C080E237FD8DE2A3
:101FD000B70190E00E942A10A51438F4B70180E3FD
:101FE00090E00E942A105A94F7CFAA94F401EA0DC7
:101FF000F11D8081B70190E00E942A10A110F5CF59
:10200000332009F451CEB70180E290E00E942A10FB
:102010003A94F6CFF7018681978102C08FEF9FEF48
:102020002C96E2E10C940A11FC010590615070407D
:102030000110D8F7809590958E0F9F1F0895FC0191
:102040006150704001900110D8F7809590958E0FE7
:102050009F1F08950F931F93CF93DF93FB0123815D
:1020600021FD03C08FEF9FEF28C022FF16C04681DD
:102070005781248135814217530744F4A081B181EF
:102080009D012F5F3F4F318320838C9326813781C1
:102090002F5F3F4F3783268310C0EB01092F182F86
:1020A0000084F185E02D0995892BE1F68E819F81D1
:1020B00001969F838E83812F902FDF91CF911F9167
:1020C0000F910895FA01AA27283051F1203181F1AA
:1020D000E8946F936E7F6E5F7F4F8F4F9F4FAF4F30
:1020E000B1E03ED0B4E03CD0670F781F891F9A1F43
:1020F000A11D680F791F8A1F911DA11D6A0F711DF7
:10210000811D911DA11D20D009F468943F912AE002
:10211000269F11243019305D3193DEF6CF010895EA
:10212000462F4770405D4193B3E00FD0C9F7F6CF1B
:10213000462F4F70405D4A3318F0495D31FD4052E3
:10214000419302D0A9F7EACFB4E0A6959795879579
:1021500077956795BA95C9F7009761057105089558
:102160009B01AC010A2E0694579547953795279504
:10217000BA95C9F7620F731F841F951FA01D08959C
:10218000A8E1B0E042E050E00C94CE100196272F79
:102190000E94DD100C94DC10DC01CB01FC01F999EC
:1021A000FECF06C0F2BDE1BDF89A319600B40D92A3
:1021B00041505040B8F70895262FF999FECF92BDAF
:1021C00081BDF89A019700B4021639F01FBA20BDFC
:1021D0000FB6F894FA9AF99A0FBE08952F923F928B
:1021E0004F925F926F927F928F929F92AF92BF9227
:1021F000CF92DF92EF92FF920F931F93CF93DF93D3
:10220000CDB7DEB7CA1BDB0B0FB6F894DEBF0FBE2F
:10221000CDBF09942A88398848885F846E847D847C
:102220008C849B84AA84B984C884DF80EE80FD807E
:102230000C811B81AA81B981CE0FD11D0FB6F894F4
:0E224000DEBF0FBECDBFED010895F894FFCFB5
:10224E000102FF230FE803E803FF01FF581B581B91
:10225E00080701D007050406070300000000BA01B5
:0C226E00360183016101750101022E00A0
:00000001FF
